:020000040000FA
:020000001028C6
:1000200083120313F001F101F201F301F401F50170
:10003000F601F701F801F901FA01FB01E00188017D
:10004000890183168B1306309F00890188010F30C8
:100050008600811383121923C701BC2281222F211C
:100060003120013050020310031950280230500291
:10007000031003199C280330500203100319A4280D
:100080000430500203100319B52805305002031044
:100090000319882806305002031003199228FE2AFB
:1000A0003008D8004008D7000310D80C0310D70C34
:1000B000031057085802031C5E287728301C61285B
:1000C0006428401C67287328401C6F286B28580838
:1000D0005702E0005A2A58085702E000332A58080D
:1000E0005707E0005A2A58085707E000332A301C07
:1000F0007A287D28401C80287328401C6F2884287B
:1001000057085802E000332A57085802E0005A2ADC
:10011000E0013018E00AB018E00A3019E00AB0191E
:10012000E00AE129E001401CE00AC01CE00A401D91
:10013000E00AC01DE00AE129E0014008D5003008CE
:10014000E007D50B9F28E129E0014008D5003008E1
:10015000D4000030400203100319FE2A0310550892
:10016000D402031CE129E00AAE2803014008E200A2
:1001700001306202031C092ABD283008E100031087
:1001800001306102031CCB283008E100013061021C
:100190000319092ACE280030E000E1294008E200D6
:1001A000013062020319D528D8283008E000E1297F
:1001B0000301E001E4014008E2003008E100E3004F
:1001C00001300310E007E30BE128E20BE828E12906
:1001D0003008E30003016007E001E128C101C2012A
:1001E000C30145086430C502031CF828C30AF1287E
:1001F0006430C5070A30C502031C0029C20AFA2868
:100200000A30C5074508C1000800B001F30DF30D21
:10021000730DB000F20D720DB007710DB007003014
:100220007007B0070800C001F70DF70D770DC0008B
:10023000F60D760DC007750DC00700307407C007B6
:100240000800D001FB0DFB0D7B0DD000FA0D7A0DDF
:10025000D007790DD00700307807D00708000A30A2
:10026000470203193C290B304702031973290C304C
:1002700047020319AA290800F301F201F101F00174
:100280005B21C7018E224708F3005B218122C70151
:100290008E224708F2005B218122C7018E22470887
:1002A000F1005B218122C7018E224708F0005B210B
:1002B000812205212C288030A00036234130A00067
:1002C000402330307307A000402303013030720711
:1002D000A000402330307107A00040233030700769
:1002E000A00040230800F701F601F501F401922176
:1002F000C7018E224708F70092218122C7018E2272
:100300004708F60092218122C7018E224708F50096
:1003100092218122C7018E224708F4009221812276
:1003200013212C288530A00036234230A000402322
:1003300030307707A0004023030130307607A0005B
:10034000402330307507A000402330307407A000F0
:1003500040230800FB01FA01F901F801C921C70196
:100360008E224708FB00C9218122C7018E2247083F
:10037000FA00C9218122C7018E224708F900C9214C
:100380008122C7018E224708F800C921812221213C
:100390002C288A30A00036234330A0004023303080
:1003A0007B07A0004023030130307A07A0004023E0
:1003B00030307907A000402330307807A000402378
:1003C0000800C430A00036235230A000402345303E
:1003D000A00040235330A00040235530A00040230C
:1003E0004C30A00040235430A0004023E101E20142
:1003F000E3016008C500EE2030304307A000402331
:1004000030304207A000402330304107A000402395
:100410002C28C430A00036235230A00040234530A1
:10042000A00040235330A00040235530A0004023BB
:100430004C30A00040235430A00040230130E000A5
:10044000E101E201E3016008C500EE20303043071E
:10045000A000402330304207A00040233030410745
:10046000A00040232C28C430A00036235230A00026
:1004700040234530A00040235330A0004023553096
:10048000A00040234C30A00040235430A000402363
:10049000E101E201E3016008C500EE202B30A0007D
:1004A000402330304207A000402330304107A000F5
:1004B00040232C28C430A00036235230A000402313
:1004C0004530A00040235330A00040235530A00009
:1004D00040234C30A00040235430A0004023E101D1
:1004E000E201E3016008C500EE202D30A0004023AA
:1004F00030304207A000402330304107A0004023A5
:100500002C283230D1008030D2008030D300D30B81
:10051000872AD20B852AD10B832A08000612861659
:1005200006178617061CEF2A861CF12A061DF22ADA
:10053000861DB92A06168612061CF32A861CF42A82
:10054000061DF52A861DBA2A86160613061CF62AEB
:10055000861CF72A061DF82A861DBB2A0617861355
:10056000061CFA2A861CED2A061DFB2A861DF92A7E
:100570008E2AFE2AFE2AFE2A0612861606178617DD
:10058000061CEF2A861CF12A061DF22A861DE72A80
:1005900006168612061CF32A861CF42A061DF52A66
:1005A000861DE92A86160613061CF62A861CF72ADB
:1005B000061DF82A861DEB2A06178613061CFA2A42
:1005C000861CED2A061DFB2A861DF92ABC2A0A3044
:1005D000FC2A0B30FC2A0C30FC2A0030FC2A0130AB
:1005E000FC2AFE2AFE2AFE2AFE2AFE2AFE2AFE2ACD
:1005F000FE2AFE2AFE2AFE2AC7000800192384309C
:10060000A000362361234530A000402361235230EF
:10061000A000402361235230A000402361234F30CB
:10062000A000402361235230A00040236123182BF7
:10063000182B3030A00036234A233030A000362358
:1006400053233030A000362361230130A00036232D
:1006500061230630A000362361230C30A00036232E
:1006600061233830A0003623612308000030890060
:1006700020088800013089005823003089000800D4
:100680000230890020088800033089005823023096
:1006900089000800CD30A3002030A200A20B4E2B11
:1006A000A30B4C2B08002030A200A20B552B0800F6
:1006B0001930A300FA30A200A20B5C2BA30B5A2B1B
:1006C00008000A30A4001930A300FA30A200A20BDF
:0C06D000672BA30B652BA40B632B080009
:02400E003A3F37
:00000001FF
